{
  "_format": "hh-sol-artifact-1",
  "contractName": "MyToken",
  "sourceName": "contracts/MyToken.sol",
  "abi": [
    {
      "inputs": [
        {
          "internalType": "uint256",
          "name": "_mintTokenNumber",
          "type": "uint256"
        }
      ],
      "stateMutability": "nonpayable",
      "type": "constructor"
    },
    {
      "inputs": [
        {
          "internalType": "address",
          "name": "account",
          "type": "address"
        }
      ],
      "name": "balanceOf",
      "outputs": [
        {
          "internalType": "uint256",
          "name": "",
          "type": "uint256"
        }
      ],
      "stateMutability": "view",
      "type": "function"
    },
    {
      "inputs": [],
      "name": "mint",
      "outputs": [],
      "stateMutability": "payable",
      "type": "function"
    },
    {
      "inputs": [],
      "name": "mintTokenNumber",
      "outputs": [
        {
          "internalType": "uint256",
          "name": "",
          "type": "uint256"
        }
      ],
      "stateMutability": "view",
      "type": "function"
    },
    {
      "inputs": [],
      "name": "totalSupply",
      "outputs": [
        {
          "internalType": "uint256",
          "name": "",
          "type": "uint256"
        }
      ],
      "stateMutability": "view",
      "type": "function"
    }
  ],
  "bytecode": "0x608060405234801561001057600080fd5b506040516103be3803806103be8339818101604052810190610032919061007a565b80600081905550506100a7565b600080fd5b6000819050919050565b61005781610044565b811461006257600080fd5b50565b6000815190506100748161004e565b92915050565b6000602082840312156100905761008f61003f565b5b600061009e84828501610065565b91505092915050565b610308806100b66000396000f3fe60806040526004361061003f5760003560e01c80630a167653146100445780631249c58b1461006f57806318160ddd1461007957806370a08231146100a4575b600080fd5b34801561005057600080fd5b506100596100e1565b60405161006691906101c4565b60405180910390f35b6100776100e7565b005b34801561008557600080fd5b5061008e61015c565b60405161009b91906101c4565b60405180910390f35b3480156100b057600080fd5b506100cb60048036038101906100c69190610242565b610162565b6040516100d891906101c4565b60405180910390f35b60005481565b600054600260003373ffffffffffffffffffffffffffffffffffffffff1673ffffffffffffffffffffffffffffffffffffffff1681526020019081526020016000206000828254610138919061029e565b9250508190555060005460016000828254610153919061029e565b92505081905550565b60015481565b6000600260008373ffffffffffffffffffffffffffffffffffffffff1673ffffffffffffffffffffffffffffffffffffffff168152602001908152602001600020549050919050565b6000819050919050565b6101be816101ab565b82525050565b60006020820190506101d960008301846101b5565b92915050565b600080fd5b600073ffffffffffffffffffffffffffffffffffffffff82169050919050565b600061020f826101e4565b9050919050565b61021f81610204565b811461022a57600080fd5b50565b60008135905061023c81610216565b92915050565b600060208284031215610258576102576101df565b5b60006102668482850161022d565b91505092915050565b7f4e487b7100000000000000000000000000000000000000000000000000000000600052601160045260246000fd5b60006102a9826101ab565b91506102b4836101ab565b92508282019050808211156102cc576102cb61026f565b5b9291505056fea2646970667358221220699243c321b19d5e5f767a8ba0172bb875fdb2af434518b8462e6becba59c8da64736f6c63430008110033",
  "linkReferences": {},
  "deployedLinkReferences": {}
}